:10000000ABC00000C9C00000C7C00000C5C00000F0
:10001000C3C00000C1C00000BFC00000BDC00000E0
:10002000BBC00000B9C00000B7C000000C94470975
:10003000B3C00000B1C00000AFC00000ADC0000000
:100040000C94D20AA9C00000A7C00000A5C00000FF
:10005000A3C00000A1C000009FC000009DC0000020
:100060009BC000000C94B40D0C94D50D95C00000FD
:1000700093C0000091C000008FC000000C94F009F4
:100080008BC0000089C0000087C0000085C0000050
:1000900083C0000081C000007FC000007DC0000060
:1000A0007BC0000079C0000077C0000075C0000070
:1000B00073C0000071C000006FC000006DC0000080
:1000C0006BC0000069C0000067C0000065C0000090
:1000D00063C0000061C000005FC000005DC00000A0
:1000E0005BC00000C406CE062F070207AC06BD06A3
:1000F000630671068506620759065E066207ED060D
:100100003807620762076207D8064C076207620772
:100110006207620762071D076207620762076207DC
:1001200062076207F80503062907F906F105340698
:100130002706620762074B06620762076207E60648
:1001400062076207620762072D066207620762079D
:10015000620762076207140711241FBECFEFD1E2C6
:10016000DEBFCDBF00E00CBF12E0A0E0B2E0E8EEE1
:10017000F3E200E00BBF02C007900D92AC36B1076E
:10018000D9F723E0ACE6B2E001C01D92A33FB2076D
:10019000E1F7D6D60C94F21133CFE1E9F0E080819B
:1001A000887F80830895E82FF0E0E05FFC4F848D26
:1001B00081116195628F0895883018F4880F880F37
:1001C000880F803150F481E0809300028093010217
:1001D000109202021092030218C0803161F081E097
:1001E0008093000280930102809302021092030226
:1001F000809304020CC081E0682760930002609342
:100200000102809302028093030210920402109272
:10021000050208950F931F93CF93DF93CDB7DEB7F9
:1002200029970FB6F894DEBF0FBECDBF8E010F5FCA
:100230001F4F89E0F80111928A95E9F740E068E0E4
:10024000C8010E94C80C48E050E066E072E0C801B6
:100250000E94CE11892BA1F580916F02823080F52A
:1002600080917002823060F590916C02923040F57E
:1002700080916D02992319F0813218F021C08131EB
:10028000F8F480915803909159038C52914085382D
:100290009340B0F480915A0390915B038C5291404B
:1002A0008538934068F480910C0390910D03892B5D
:1002B00039F081E020910E0330910F03232B09F4D4
:1002C00080E029960FB6F894DEBF0FBECDBFDF9158
:1002D000CF911F910F91089540E068E086E092E091
:1002E0000C94160D60913C0370913D0380913E0388
:1002F00090913F034EE00E94FB0C6091400370918F
:100300004103809142039091430342E10E94FB0C20
:100310006091440370914503809146039091470397
:1003200046E10E94FB0C6091480370914903809163
:100330004A0390914B034AE10E94FB0C60914E03EB
:1003400070914F0380915003909151034EE10E94B0
:10035000FB0C609152037091530380915403909170
:10036000550342E20E94FB0C69E080916F020E94FB
:10037000E70C6AE0809170020E94E70C6BE08091CC
:100380006C020E94E70C68E080916D020E94E70C0D
:100390006CE080910C030E94E70C6DE080910E03ED
:1003A0000E94E70C66E280915803909159030E94E5
:1003B000EC0C68E280915A0390915B030C94EC0C76
:1003C00090E0AC01440F551FFA01E45FFC4F20811F
:1003D0003181FA01E85FFC4F0190F081E02DDC01F2
:1003E000AA5ABC4F4C9150E04F5F5F4F80E090E0C5
:1003F0002E173F0768F4B901A5E076956795AA9591
:10040000E1F76F5F7F4F260F371F840F951FF0CFE7
:1004100008952F923F924F925F926F927F928F92A8
:100420009F92AF92BF92CF92DF92EF92FF920F9383
:100430001F93CF93DF93C82FD0E0FE01EE0FFF1F75
:10044000EE0FFF1FEC5BFC4F80809180A280B38099
:1004500060E072E18AE790E0A50194010E948711B3
:1004600069017A010E9442102B013C01C501B401CF
:100470000E9442109B01AC01C301B2010E94AE0F69
:1004800020E030E040E052E40E94101120E030E033
:1004900040E05FE30E94370F0E9416104B015C01A1
:1004A000E114F10461F480E8C816D104E104F10418
:1004B00058F460E8C62ED12CE12CF12C05C0CC24D8
:1004C000CA94DC2CE12CF12C9E0156E0220F331F44
:1004D0005A95E1F728583D4F80E090E0F901E80F88
:1004E000F91FD182C082029680349105B9F71601B6
:1004F000C12CD12C76018E0145E0000F111F4A95C9
:10050000E1F7C814D904EA04FB0461F1C701B6019C
:100510000E94421020E030E040E052E40E941011BE
:100520002B013C01C501B4010E9442109B01AC01AA
:10053000C301B2010E94AE0F0E949B0F0E941610D1
:10054000F801E60FF11DEE0FFF1FE858FD4F808107
:1005500091810196918380838FEFC81AD80AE80AA7
:10056000F80ACFCFFE01EE0FFF1FE85AFC4F608163
:10057000718103E0769567950A95E1F783E03694FB
:1005800027948A95E1F7269EB0011124CA5ADC4FC0
:10059000CB0196958795825C964B0E9473116150B2
:1005A0006883DF91CF911F910F91FF90EF90DF90C3
:1005B000CF90BF90AF909F908F907F906F905F9003
:1005C0004F903F902F90089561E075E080E090E0BB
:1005D0000E94F90D89E00E94A30C80936F028AE0CB
:1005E0000E94A30C809370028BE00E94A30C809366
:1005F0006C028CE00E94A30C90E090930D0380931A
:100600000C038DE00E94A30C90E090930F03809365
:100610000E0388E00E94A30C80936D0261E090912C
:100620006C02911101C060E0C7DD81E090916D0224
:10063000953008F480E080937702ECDD811103C0EF
:1006400081E080936E0280915803909159039695B2
:100650008795909309038093080380915A039091A2
:100660005B039695879590930B0380930A0380E034
:10067000D0DE81E0CEDE80E0A3DE90937202809334
:10068000710281E09DDE909374028093730208955D
:10069000811106C09091020190619093020101C006
:1006A000A19AE82FF0E0E05FFC4F168E089540918C
:1006B00018035091190320916F002F7D20936F0034
:1006C00020919A0030919B0060916F00606260936E
:1006D0006F006091080370910903F62FE72F6417EC
:1006E000750710F4F42FE52FA0913203A11103C078
:1006F0002617370710F02F2F3E2F60916F006F7D68
:1007000060936F0050935D0340935C0330939B00B4
:1007100020939A00F0930403E093050321E030E076
:1007200030938B0020938A0030916F0220912C032C
:10073000321711F02F9A01C02F98AA23E9F01092D6
:1007400075021EBA98B987B910928500109284007C
:10075000809178029091790290938700809386002F
:1007600080918100897F80938100809181008160E8
:10077000809381001092320380916F008062809399
:100780006F00089540911A0350911B03209171004E
:100790002F7D2093710020919800309199006091F5
:1007A000710060626093710060910A0370910B03A5
:1007B000F62FE72F6417750710F4F42FE52FA0919B
:1007C0003303A11103C02617370710F02F2F3E2F38
:1007D000609171006F7D6093710050935F0340934F
:1007E0005E033093990020939800F0930603E09302
:1007F000070321E030E03093890020938800309196
:10080000700220912D03321711F0299A01C0299806
:10081000AA23E9F0109276021ABC91BD80BD109215
:100820009500109294008091B8029091B902909333
:1008300097008093960080919100897F809391002A
:100840008091910081608093910010923303809198
:1008500071008062809371000895811102C0CB0104
:1008600026CFCB018FCFE82FF0E0E05FFC4F628D09
:10087000772767FD7095F1CF4F925F926F927F92CD
:100880008F929F92AF92BF92CF92DF92EF92FF92A0
:100890000F931F93CF93DF93B82EC82FD0E0BE01E4
:1008A000660F771FFB01EF58FD4F20813181FE015C
:1008B000E05FFC4F828DD28C18160CF0D194848DA1
:1008C000882319F0AA24AA9402C0AA24A3944E0152
:1008D000880C991C880C991CB1101BC0C9019695F5
:1008E00087957C0100E010E0A401405F5C4FDA01D5
:1008F00052964D905D906D907C9055974E145F048C
:100900006006710600F5FA01E28AF38A048B158B02
:100910001AC0A401405F5C4FDA0152964D905D9081
:100920006D907C905597B0E14B16510461047104B1
:1009300050F4F0E14F2E512C612C712CFA01428AB7
:10094000538A648A758AD29E8001D39E100D112429
:10095000D401A05FBC4F52968D919D910D90BC919A
:10096000A02D9C01AD0156954795379527952F5F92
:100970003F4F4F4F5F4F645F7C4FFB01E080F18042
:10098000F8E0DF1202C0887F287F2801612C712CDB
:10099000241535054605570508F4890194012850AA
:1009A0003D4F69019C01AD01201B310B41095109EB
:1009B000AA2DBB27A7FDB0950E94B911F401E05FF5
:1009C000FC4F4080518062807380640D751D861DD0
:1009D000971DD6016D937D938D939C931397FE0184
:1009E000EE0FFF1FE85EFC4FF182E0829BB5BB205B
:1009F00011F088E001C084E0892B8BBD2A2D2003F3
:100A0000B001219F700D11248B2D27DFC050DD4FC9
:100A100081E08883DF91CF911F910F91FF90EF903C
:100A2000DF90CF90BF90AF909F908F907F906F900E
:100A30005F904F9008958823A1F080916F008F7D83
:100A400080936F0080918100887F80938100109255
:100A5000300381E08093320310920203109200036E
:100A600008958091320381112DC0109230031092AD
:100A7000000380916F008F7D80936F008091080349
:100A80009091090320915C0330915D032817390789
:100A900058F420910403309105038217930720F442
:100AA00090930503809304038091040390910503C0
:100AB000019690935D0380935C0380916F00806248
:100AC00080936F000895882381F0809171008F7D5D
:100AD0008093710062DB1092310381E080933303D5
:100AE0001092030310920103089580913303811142
:100AF0002DC01092310310920103809171008F7DFF
:100B00008093710080910A0390910B0320915E0302
:100B100030915F032817390758F42091060330916C
:100B200007038217930720F490930703809306032B
:100B30008091060390910703019690935F03809341
:100B40005E0380917100806280937100089581112D
:100B500002C0862F70CF862FB6CF109271001092F0
:100B60006F001092800088E18093810010929000C5
:100B7000809391000895811106C0909102019F7E9B
:100B80009093020101C0A198E82FF0E0E05FFC4FD4
:100B900081E0868FE2CFDF92EF92FF920F931F9357
:100BA000CF93DF93CDB7DEB72B970FB6F894DEBFA8
:100BB0000FBECDBF082F7B0182E00E942F0F182FA0
:100BC000402F552747FD5095652F752FFA01E154A9
:100BD000F109EA33F10508F075C1EE58FF4F0C94A6
:100BE000A91124E0829FF0011124EC5CFC4F06C0A7
:100BF00044E0849FF0011124E45CFC4F20813181AA
:100C00004281538162C1E82FF0E0DF01AA0FBB1FD0
:100C1000AA0FBB1FAC5BBC4F2D913D914D915C91D8
:100C200080916E02811151C1EE0FFF1FE85AFC4FF7
:100C30000190F081E02DEE0FFF1FDF0111960E9461
:100C4000AF119F0140E050E00E9487113EC1E82FA4
:100C5000F0E0E05FFC4F24ADD3C084E0189FF001CA
:100C60001124E25BFC4FCACFE82FF0E0E05FFC4FBD
:100C7000248D30E0322F2227330F82A1382B868D2E
:100C8000282B80A1A0E18A9FC0011124282B392B99
:100C900040E050E01AC18FB7F894B4E01B9FF00118
:100CA0001124E05FFC4F20813181428153818FBF4D
:100CB0000CC160E04CDFE12FF0E024C061E047DFD1
:100CC000812FE6DCFFC090E0FC01E05FFC4FD70124
:100CD0002C912053208B11962C912170248FFC0194
:100CE00011C0C7010E940E0F212F30E0F901EE0F55
:100CF000FF1FEE0FFF1FE05FFC4F628B738B848B37
:100D0000958BF901EE5FFC4F25C0C7010E940E0FC5
:100D1000611571058105910521F461E070E080E0C5
:100D200090E0212F30E0F901EE0FFF1FE85EFC4F4D
:100D300071836083F901EE5FFC4F8081823051F452
:100D4000F901E05FFC4F628D772767FD7095812F79
:100D500084DDB8C01082B6C0DFB6F894C7010E9427
:100D60000E0FB4E01B9FF0011124E05FFC4F608385
:100D7000718382839383DFBEA5C080916E0281114F
:100D80009CC0812FF8DE9EC0C7010E940E0F24E098
:100D9000129FF0011124E45CFC4F13C0C7010E94B4
:100DA0000E0F44E0149FF0011124EC5BFC4F09C0CE
:100DB000C7010E940E0FA4E01A9FF0011124E25B0C
:100DC000FC4F60837183828393837CC0E82FF0E0C3
:100DD000EE0FFF1FE85AFC4F2DC0C7010E940E0FF7
:100DE000E12FF0E0EE0FFF1FE85AFC4F71836083A4
:100DF00069C0882319F020916D0202C020916C0215
:100E000030E046CFC701112359F00E940D0F8093A7
:100E10006D0291E0853008F490E09093770252C023
:100E2000FCD780936C024EC0E82FF0E0EE0FFF1F5E
:100E3000E45FFC4F208131812BCFC701EED7E12F3A
:100E4000F0E0EE0FFF1FE45FFC4F90E091838083A2
:100E500039C0E82FF0E0E159FD4F2081D1CFE82FD4
:100E6000F0E0E159FD4FD7018C91805380832AC077
:100E7000F7018081805380936E02882319F181E00D
:100E8000DADD80E005DC81E01EDE81E001DC10922D
:100E900002031092030316C090916E02892F817095
:100EA00091FF06C0882311F017DA0CC01BDA0AC0C4
:100EB000882341F0AFD9811105C020E030E0A901BD
:100EC00000E003C020E030E0A901602FCE010196D0
:100ED000B8D6CE0101963DD6023591F489818D3385
:100EE00009F528E088E190E00FB6F894A895809382
:100EF00060000FBE2093600080E090E00E94F2113D
:100F00000A3481F480916E0281110CC0E12FF0E06F
:100F1000DF01AE5FBC4F81E08C93E05FFC4F9089B6
:100F200090FF80A32B960FB6F894DEBF0FBECDBF07
:100F3000DF91CF911F910F91FF90EF90DF90089577
:100F4000CF93DF93CDB7DEB72B970FB6F894DEBF04
:100F50000FBECDBF789438DB14BC15BC10926E0068
:100F600080910101826080930101259A2D988091E2
:100F70000A01826080930A0180910B018D7F80932A
:100F80000B01809101018061809301018091020138
:100F9000806180930201999AA19A269A2E98239AA9
:100FA0002B98279A2F98219A299880910101806285
:100FB0008093010180910101806480930101249A52
:100FC00080910A01806880930A0180910A01806201
:100FD00080930A0180910A01886080930A018091C0
:100FE0007702811105C080910302E3E0F2E004C0C2
:100FF00080910002E0E0F2E0882349F08091020154
:1010000080628093020180910B01806808C080910A
:1010100002018F7D8093020180910B018F77809375
:101020000B018181882349F08091020180648093C3
:10103000020180910B01806208C0809102018F7BC8
:101040008093020180910B018F7D80930B0182813F
:10105000882329F02C9A80910B01886004C02C9879
:1010600080910B01877F80930B018FE99FE00197AF
:10107000F1F700C000002D9A80910B0182608093EF
:101080000B0180910101877F809301018091020112
:10109000886080930201809107018B7F8093070114
:1010A00080910801846080930801809107018D7F01
:1010B00080930701809108018260809308018091EC
:1010C0000701877F809307018091080188608093E2
:1010D000080160E875E280E090E0BDD40BD588237C
:1010E00011F00FD5FBCF8FE080936D0080916800E9
:1010F000846080936800809168008D7F8093680091
:10110000809168008E7F8093680010E0E12C02E0FF
:101110001E3F19F0EFD48823B1F09091020190277F
:10112000909302011E3F11F0ECD4E82E6E2DCE01FB
:10113000019624D6182F18160CF0A2C08DD6BE0129
:101140006F5F7F4F28DD80910203813009F048C036
:1011500080913203882309F443C0F09020038091EA
:101160007702882379F1FF2019F093E0F91206C085
:1011700068E080E018D8E3E0F2E005C061E080E0DC
:1011800012D8E0E0F2E08081882321F08091020112
:10119000806203C0809102018F7D80930201818172
:1011A000882321F080910201806403C080910201B4
:1011B0008F7B809302018281882311F02C9A06C0D4
:1011C0002C9804C061E080E00E94D30080E0F0FE33
:1011D00004C049DB0093020303C04EDB10920203FC
:1011E00080910303813009F093CF809133038823EA
:1011F00009F48ECFF090210380917702882389F142
:10120000FF2019F083E0F81207C068E081E00E9437
:10121000D300E3E0F2E006C061E081E00E94D30089
:10122000E0E0F2E0808190910B01882311F090685A
:1012300001C09F7790930B01818190910B018823CE
:1012400011F0906201C09F7D90930B01828190917B
:101250000B01882311F0986001C0977F90930B01D8
:1012600004C061E081E00E94D30081E0F0FE04C090
:10127000FADA009303034CCFFFDA1092030348CF4E
:10128000882309F460CFCE01019663D45CCF1F920E
:101290000F920FB60F9211240BB60F922F933F931C
:1012A0004F935F936F937F938F939F93AF93BF936E
:1012B000EF93FF938091300381114EC04091320330
:1012C000209158033091590380912C03882319F001
:1012D000442309F43DC08091060182FF06C080913D
:1012E000000183FD35C083E301C085E5220F331F74
:1012F000220F331F90E0A0E0B0E02F5F3F4F289F08
:10130000912D900DA11D329F900DA11DBB1FA00D11
:10131000B11D11249D0130935D0320935C03442390
:1013200059F010922C0361E060932A03609320032C
:10133000862F90E0BCD910C08091040390910503E2
:101340008217930748F4309305032093040304C0E5
:1013500030935D0320935C038091310381112DC094
:101360008091060183FF07C08091060181FD1CC0AA
:1013700091E080E002C09FEF81E090932B03809387
:101380002D0380915A0390915B03880F991F880F5A
:10139000991F90935F0380935E0381E08093210304
:1013A00081E090E0EFD909C0809106039091070396
:1013B000019690935F0380935E03FF91EF91BF913D
:1013C000AF919F918F917F916F915F914F913F91DD
:1013D0002F910F900BBE0F900FBE0F901F9018957E
:1013E0008F938FB78F939F938091880090918900FE
:1013F000019709F0CEC0EF93FF932F933F935F9334
:101400004F930F921F9211242AB5E22FEE73F0E052
:10141000E854FD4F808191819093970080939600CE
:101420002F5F2ABD45B12091980030919900C901E4
:10143000309389002093880043FF72C0BF93AF931D
:10144000477F45B9409114035091150360911603ED
:101450007091170380912B03992787FD9095A92FF1
:10146000B92F840F951FA61FB71F80931403909365
:101470001503A0931603B0931703209101032223B1
:1014800091F14091FC025091FD026091FE02709139
:10149000FF02481759076A077B0729F50BB403FCBD
:1014A00005C08091010381112AC02DC020B531B53E
:1014B0004FEF37FF4427542F280F391F4A1F5B1F58
:1014C0002093FC023093FD024093FE025093FF02F2
:1014D0008BB5877F8BBD8091060390910703909316
:1014E0005F0380935E032091980030919900809172
:1014F0000603909107038217930798F20EC010928B
:1015000031031092010381E08093330380917100D5
:101510008F7D809371000E94CD00AF91BF9130C04C
:10152000486045B920915E0330915F03A9012817F7
:10153000390709F425C02091760260915703362FB0
:1015400062131BC0382F092E307F02943295032A74
:10155000069403949C0180199109841795073CF423
:10156000C901800D911D481759070CF4CA019093C9
:1015700099008093980020E001C02F5F20937602AD
:101580001F900F904F915F913F912F91FF91EF919D
:1015900004C090938900809388009F918F918FBFA2
:1015A0008F9118958F938FB78F939F9380918A0017
:1015B00090918B00019709F0D1C0EF93FF932F9387
:1015C0003F935F934F930F921F9211242EB3E22FFC
:1015D000EE73F0E0E858FD4F808191819093870091
:1015E000809386002F5F2EBB45B120919A003091E9
:1015F0009B00C90130938B0020938A0046FF75C081
:10160000BF93AF934F7B45B94091100350911103A5
:10161000609112037091130380912A03992787FD2B
:101620009095A92FB92F840F951FA61FB71F8093E0
:10163000100390931103A0931203B093130320910E
:101640000003222391F14091F8025091F902609138
:10165000FA027091FB0284179507A607B70729F5D0
:101660000BB402FC05C08091000381112AC02DC07B
:1016700027B138B14FEF37FF4427542F280F391FB8
:101680004A1F5B1F2093F8023093F9024093FA023D
:101690005093FB028BB58B7F8BBD8091040390919F
:1016A000050390935D0380935C0320919A00309131
:1016B0009B0080910403909105038217930798F291
:1016C00011C0109230031092000381E08093320326
:1016D00080916F008F7D80936F0080918100887F63
:1016E00080938100AF91BF9130C0406445B9209193
:1016F0005C0330915D03A9012817390709F425C05F
:101700002091750260915603362F62131BC0382F4B
:10171000092E307F02943295032A069403949C018B
:1017200080199109841795073CF4C901800D911D1A
:10173000481759070CF4CA0190939B0080939A00B4
:1017400020E001C02F5F209375021F900F904F91F2
:101750005F913F912F91FF91EF9104C090938B0087
:1017600080938A009F918F918FBF8F9118952F92B0
:101770003F924F925F926F927F928F929F92AF9221
:10178000BF92CF92DF92EF92FF920F931F93CF936E
:10179000DF9300D01F921F92CDB7DEB74B015C01E3
:1017A0004B838EE0E1D060933C0370933D038093C4
:1017B0003E0390933F0382E1D7D060934003709340
:1017C0004103809342039093430386E1CDD060931D
:1017D00044037093450380934603909347038AE143
:1017E000C3D0609348037093490380934A03909356
:1017F0004B038EE1B9D060934E0370934F038093F7
:1018000050039093510382E2AFD0609352037093E0
:101810005303809354039093550386E296D090939C
:1018200059038093580388E290D090935B03809390
:101830005A038CE2C82E83E0D82E92E3E92E93E07F
:10184000F92E00E313E06EE273E0E0E1F3E048E13B
:1018500053E020E233E084E393E0ACE4B3E0BD8303
:10186000AC83A6E5B3E0BA83A983A2E03A2E412C6B
:10187000512CB0E86B2E712CD6011D926D01D70151
:10188000222423942D927D01D8011D928D01DB012C
:101890001D92BD014082518262827382DA011D92E3
:1018A0001D92AD01D9011D929D01128A138A148ADD
:1018B000158ADC018D929D92AD92BD92CD01AC81D5
:1018C000BD812B802D92BD83AC83A981BA811D92ED
:1018D000BA83A9833A9434963110CECF0F900F90EB
:1018E0000F900F900F90DF91CF911F910F91FF906C
:1018F000EF90DF90CF90BF90AF909F908F907F90B0
:101900006F905F904F903F902F900895EEE0F2E03F
:1019100020E030E0908198130EC0C901880F991F14
:10192000FC01E20FF31FE25FFD4F662311F081819E
:101930000895828108952F5F3F4F33962F313105EF
:1019400049F78FEF089590E037C5CF93DF93C82F05
:1019500090E032D5D82F81E08C0F90E02DD5982FD4
:101960008D2FDF91CF910895CF92DF92EF92FF926A
:10197000CF93C82FEADF6C0182E08C0FE6DF7C0199
:10198000C701B601CF91FF90EF90DF90CF900895FF
:10199000EF92FF921F93CF93DF931F92CDB7DEB7E5
:1019A0007C01640F461761F011E0140F842F90E062
:1019B000698302D5F70181937F01412F6981F2CFBD
:1019C0000F90DF91CF911F91FF90EF900895962F88
:1019D000682F892F90E0F8C4CF93DF93D92FC62FBB
:1019E000682F8C2F90E0F0D481E08C0F6D2F90E069
:1019F000DF91CF91E9C4CF92DF92EF92FF92CF9324
:101A0000DF931F92CDB7DEB76B017C01642FC60157
:101A10004983E2DF498162E0640FC7010F90DF91E3
:101A2000CF91FF90EF90DF90CF90D6CF0F931F9381
:101A3000CF93DF93062FEC01040F142F101731F012
:101A40006991812F90E0C0D41F5FF8CFDF91CF91D3
:101A50001F910F910895CF92DF92EF92FF926B0149
:101A60007C0182E08093C00060E079E08DE390E04B
:101A7000A70196014CD421503109410951095695CD
:101A8000479537952795622F932F832F807F99F065
:101A90001092C00060E874E88EE190E0A701960122
:101AA00036D421503109410951095695479537954A
:101AB0002795622F932F292F2F702093C5006093B5
:101AC000C4008091C10080618093C1008091C100F9
:101AD00088608093C1008091C10080688093C100BC
:101AE0008091C1008F7D8093C100FF90EF90DF90C7
:101AF000CF9008958091A0039091A103891B8F73CB
:101B000008959091A1038091A003891751F0E92FC6
:101B1000F0E0E05AFC4F80819F5F9F739093A10398
:101B200008958FEF08959091E2039F5F9F73209136
:101B3000E3039217E1F3E091E203F0E0EE55FC4F8E
:101B400080839093E2038091C10080628093C10002
:101B50000895CF93DF93EC018991882311F0E3DF9F
:101B6000FBCFDF91CF9108952F932FB72F939F93A2
:101B70008F93EF93FF939091C6008091A0038F5FA6
:101B80008F732091A103821741F0E091A003F0E050
:101B9000E05AFC4F90838093A003FF91EF918F91C7
:101BA0009F912F912FBF2F9118958F938FB78F9360
:101BB0009F93EF93FF938091E3039091E203981337
:101BC00006C08091C1008F7D8093C1000BC0E82FBB
:101BD000F0E0EE55FC4F90818F5F8F738093E303AD
:101BE0009093C600FF91EF919F918F918FBF8F913E
:101BF0001895CF92DF92EF92FF926B017C011092C9
:101C0000F2031092E6038BE0E7EEF3E0DF011D92B2
:101C10008A95E9F71092E50388E095DE883010F4A4
:101C200041E001C048E0C701B601FF90EF90DF90AE
:101C3000CF909DCD6A3008F0695F605DFC016083E4
:101C40000895CF92DF92EF92FF920F931F93CF935D
:101C5000DF931F92CDB7DEB76C01862F022FF32ED4
:101C600060E0498353DE182F498187FF05C081E278
:101C7000F601808310E03EC08DE3F60180831230D0
:101C800061F1133071F4602F6F70C6010396D2DFDB
:101C9000602F62956F70C6010296CCDF6F2D6F705A
:101CA00026C0163039F5E42EE2949FE0E922642F35
:101CB0006F70C6010696BEDF6E2DC6010596BADFAF
:101CC000EF2CE2942FE0E2226F2D6F70C601049694
:101CD000B1DF6E2DC6010396ADDFF02EF2948FE0DA
:101CE000F822602F6F70C6010296A4DF6F2DC60127
:101CF0000196A0DFF601E10FF11D17FDFA958DE0C9
:101D0000818312820F90DF91CF911F910F91FF90ED
:101D1000EF90DF90CF9008951F93CF93DF93182F0C
:101D2000EB018091E7038093E4039091E8039153E2
:101D30009093E503923010F080E01CC061E0E6DD96
:101D40009DEF910F482F552747FD5095292F30E0E3
:101D50004217530789F749EE53E0DE01FA018E2F4F
:101D6000841B891718F481918D93F9CFC20FD31F6B
:101D7000188281E0DF91CF911F910895CF93DF9377
:101D8000EC018091F203882311F16A3349F481E276
:101D900088838DE089831A821092F2038EEF2AC025
:101DA000E091E60381E08E0F8093E603F0E0E951D5
:101DB000FC4F60836D3041F4BE01AEDF882391F0AB
:101DC0001092F20381E016C08B3051F40BC06A33DD
:101DD00039F41092E60381E08093F2031092E70356
:101DE00080E008C081E288838DE089831A821092A6
:101DF000F2038FEFDF91CF910895FC0181818A3347
:101E00000CF0875090ED980F80818A330CF087504A
:101E10008295807F9F70892B0895EFCF0F931F933A
:101E2000CF93DF931F921F92CDB7DEB78C01E5DF12
:101E3000682FC80102966A83E0DF782FC8010496F4
:101E40007983DBDF6A81798190E00F900F90DF91D9
:101E5000CF911F910F9108958091E40308958230EE
:101E600010F48093E5038091E50308955058BB2753
:101E7000AA270ED084C175D130F07AD120F031F488
:101E80009F3F11F41EF46AC10EF4E095E7FB37C1E1
:101E9000E92F86D180F3BA17620773078407950785
:101EA00018F071F49EF5B5C10EF4E0950B2EBA2F23
:101EB000A02D0B01B90190010C01CA01A001112450
:101EC000FF27591B99F0593F50F4503E68F11A16FC
:101ED000F040A22F232F342F4427585FF3CF46958D
:101EE00037952795A795F0405395C9F77EF41F16AF
:101EF000BA0B620B730B840BBAF09150A1F0FF0F79
:101F0000BB1F661F771F881FC2F70EC0BA0F621F64
:101F1000731F841F48F4879577956795B795F79554
:101F20009E3F08F0B3CF9395880F08F09927EE0FE6
:101F300097958795089556D180F09F3740F4911179
:101F40000EF468C160E070E080E89FE3089526F039
:101F50001B16611D711D811DD8C0F2C00CD00FC1B0
:101F600007D140F0FED030F021F45F3F19F0C7C038
:101F7000511150C1F3C014D198F39923C9F35523DB
:101F8000B1F3951B550BBB27AA276217730784076C
:101F900038F09F5F5F4F220F331F441FAA1FA9F322
:101FA00033D00E2E3AF0E0E830D091505040E69514
:101FB000001CCAF729D0FE2F27D0660F771F881F75
:101FC000BB1F261737074807AB07B0E809F0BB0B64
:101FD000802DBF01FF2793585F4F2AF09E3F510588
:101FE00068F08DC017C15F3FECF3983EDCF3869537
:101FF00077956795B795F7959F5FC9F7880F911DFE
:102000009695879597F90895E1E0660F771F881FE9
:10201000BB1F621773078407BA0720F0621B730B9C
:10202000840BBA0BEE1F88F7E0950895C1D088F0B5
:102030009F5790F0B92F9927B751A0F0D1F0660FB4
:10204000771F881F991F1AF0BA95C9F712C0B130CF
:1020500081F0DFD0B1E00895DCC0672F782F8827AA
:10206000B85F39F0B93FCCF3869577956795B3950E
:10207000D9F73EF490958095709561957F4F8F4F7D
:102080009F4F0895E89409C097FB3EF49095809582
:10209000709561957F4F8F4F9F4F9923A9F0F92F2E
:1020A00096E9BB279395F695879577956795B795AC
:1020B000F111F8CFFAF4BB0F11F460FF1BC06F5F92
:1020C0007F4F8F4F9F4F16C0882311F096E911C0A4
:1020D000772321F09EE8872F762F05C0662371F0C5
:1020E00096E8862F70E060E02AF09A95660F771FD9
:1020F000881FDAF7880F9695879597F9089597F9CD
:102100009F6780E870E060E00895882371F477238A
:1021100021F09850872B762F07C0662311F499275A
:102120000DC09051862B70E060E02AF09A95660F02
:10213000771F881FDAF7880F9695879597F9089586
:102140009F3F31F0915020F4879577956795B7952B
:10215000880F911D9695879597F908959FEF80ECCC
:10216000089500240A9416161706180609060895FD
:1021700000240A9412161306140605060895092E63
:102180000394000C11F4882352F0BB0F40F4BF2BD2
:1021900011F460FF04C06F5F7F4F8F4F9F4F089512
:1021A00057FD9058440F551F59F05F3F71F0479508
:1021B000880F97FB991F61F09F3F79F087950895ED
:1021C000121613061406551FF2CF4695F1DF08C00C
:1021D000161617061806991FF1CF86957105610529
:1021E00008940895E5DFA0F0BEE7B91788F4BB278F
:1021F0009F3860F41616B11D672F782F8827985FD7
:10220000F7CF869577956795B11D93959639C8F365
:102210000895E894BB2766277727CB0197F908959F
:102220000BD0ADCF9EDF28F0A3DF18F0952309F087
:1022300066CF94CF1124EECFB3DFA0F3959FD1F3F7
:10224000950F50E0551F629FF001729FBB27F00D64
:10225000B11D639FAA27F00DB11DAA1F649F6627B9
:10226000B00DA11D661F829F2227B00DA11D621F08
:10227000739FB00DA11D621F839FA00D611D221FC2
:10228000749F3327A00D611D231F849F600D211DA6
:10229000822F762F6A2F11249F5750408AF0E1F049
:1022A00088234AF0EE0FFF1FBB1F661F771F881F92
:1022B00091505040A9F79E3F510570F020CFAACF12
:1022C0005F3FECF3983EDCF3869577956795B7957D
:1022D000F795E7959F5FC1F7FE2B880F911D9695A7
:1022E000879597F90895AA1BBB1B51E107C0AA1F48
:1022F000BB1FA617B70710F0A61BB70B881F991FA7
:102300005A95A9F780959095BC01CD010895A1E259
:102310001A2EAA1BBB1BFD010DC0AA1FBB1FEE1F5F
:10232000FF1FA217B307E407F50720F0A21BB30BAA
:10233000E40BF50B661F771F881F991F1A9469F726
:1023400060957095809590959B01AC01BD01CF0182
:102350000895EE0FFF1F0590F491E02D19940FD012
:10236000A59F900DB49F900DA49F800D911D1124E9
:102370000895B7FFF4CFF3DF821B930B0895A29F5C
:10238000B001B39FC001A39F700D811D1124911D49
:10239000B29F700D811D1124911D0895FB01DC0178
:1023A0004150504030F08D910190801919F4002077
:1023B000B9F7881B990B0895F999FECF92BD81BD9D
:1023C000F89A992780B50895262FF999FECF1FBA5C
:1023D00092BD81BD20BD0FB6F894FA9AF99A0FBE4E
:0823E00001960895F894FFCF67
:1023E800010101010000417374726F4551006A00D8
:1023F800066600034906004702004A00004B000039
:102408004806004D06006500066100066200066782
:1024180000027300064506005001004600004C000B
:10242800004106004206005306006E00064E0600F4
:102438004402006400024301006300025A02007A69
:0C24480000024F01005400005200000090
:00000001FF
